:020000040800F2
:10000000FF270020350200087D0200087D0200085D
:100010007D0200087D0200087D020008000000004B
:100020000000000000000000000000007D02000849
:100030007D020008000000007D0200087D0200082B
:100040007D0200087D0200087D0200087D02000894
:100050007D0200087D0200087D0200087D02000884
:100060007D0200087D0200087D0200087D02000874
:100070007D0200087D0200087D0200087D02000864
:100080007D0200087D0200087D0200087D02000854
:100090007D0200087D0200087D0200087D02000844
:1000A0007D0200087D0200087D0200087D02000834
:1000B0007D0200087D020008000000007D020008AB
:1000C0007D02000800000000000000007D02000822
:1000D000000000007D0200087D0200080000000012
:1000E0007D0200087D0200087D020008000000007B
:1000F0000000000000000000000000000000000000
:0C01000000000000000000005FF808F1A3
:10010C00044B05481B1A062B02D9044B03B11847A4
:10011C00704700BF0F0000200C0000200000000002
:10012C0005490648091A891001EBD171491002D012
:10013C00034B03B1184770470C0000200C00002043
:10014C000000000010B5064C237843B9FFF7D8FF28
:10015C00044B13B10448AFF300800123237010BD8E
:10016C000C000020000000008C0A000808B5084BA9
:10017C001BB108480849AFF300800848036813B95D
:10018C00BDE80840CCE7064B002BF9D09847F7E7C1
:10019C00000000008C0A0008100000200C00002059
:1001AC000000000008B500F0B3F800F001F8FEE71D
:1001BC0000B591B0012206924FF4803307934FF4AF
:1001CC00003108910A9202220D920E934FF4E01323
:1001DC000F9306A800F024F928B1022013210D4A30
:1001EC000D4B00F01DF80F23019302210291002307
:1001FC0003934FF480620492059301A800F062FB14
:10020C0028B102201C21034A044B00F009F811B05C
:10021C005DF804FBB80A0008C80A0008D80A0008F0
:10022C00022800D1FEE77047002103E00B4B5B581E
:10023C00435004310A480B4B42189A42F6D30A4AEF
:10024C0002E0002342F8043B084B9A42F9D300F039
:10025C0011F800F0EFFBFFF7A5FF7047000B00084B
:10026C00000000200C0000200C0000202C000020BE
:10027C00FEE700000F4B1A6842F001021A60596841
:10028C000D4A0A405A601A6822F0847222F48032B5
:10029C001A601A6822F480221A605A6822F4FE024C
:1002AC005A604FF41F029A604FF00062034B9A6041
:1002BC00704700BF001002400000FFF800ED00E0A6
:1002CC00704700BF10B504460E4B18784FF47A7384
:1002DC00B3FBF0F30C4A1068B0FBF3F000F074F8C9
:1002EC0058B90F2C0BD84FF0FF302146002200F0EC
:1002FC0039F8064B1C60002010BD012010BD0120F8
:10030C0010BD00BF080000200000002004000020E9
:10031C0008B5074A136843F010031360032000F07C
:10032C000FF80F20FFF7CEFFFFF7CAFF002008BD24
:10033C0000200240014B1868704700BF28000020C5
:10034C0000F00700064AD36823F4E0631B041B0C7F
:10035C0043EA002040F0BF6040F40030D0607047AA
:10036C0000ED00E030B4164BDC68C4F30224C4F199
:10037C000705042D28BF0425231D062B01D9033C9A
:10038C0000E00024012303FA05F5013D2940A140BA
:10039C00A340013B1A400A43002808DB1201D2B2E9
:1003AC0000F1604000F5614080F8002305E000F0AA
:1003BC000F001201D2B2034B1A5430BC704700BF6D
:1003CC0000ED00E014ED00E00138B0F1807F0AD2BE
:1003DC00064B5860F021064A82F8231000209860E2
:1003EC0007221A6070470120704700BF10E000E040
:1003FC0000ED00E082B0084B1B68084AA2FB032307
:10040C005B0A00FB03F0019000BF019B5A1E019296
:10041C00002BF9D102B0704700000020D34D6210C0
:10042C00002800F0EC8170B582B00446036813F02C
:10043C00010F6BD0A84B5B6803F00C03042B0AD0A4
:10044C00A54B5B6803F00C03082B0DD1A24B5B682A
:10045C0013F4803F08D0A04B1B6813F4003F55D019
:10046C006368002B52D1CCE16368B3F5803F05D1B2
:10047C00994A136843F48033136026E063B903F19F
:10048C00804303F504331A6822F480321A601A6828
:10049C0022F480221A6018E0B3F5A02F0CD103F1DE
:1004AC008043A3F53C331A6842F480221A601A6820
:1004BC0042F480321A6008E0874B1A6822F48032CA
:1004CC001A601A6822F480221A6063687BB1FFF705
:1004DC0031FF054605E0FFF72DFF401B642800F2B5
:1004EC0092817D4B1B6813F4003FF4D00EE0FFF7B4
:1004FC0021FF054605E0FFF71DFF401B642800F2B5
:10050C008481754B1B6813F4003FF4D1236813F0FE
:10051C00020F50D0704B5B6813F00C0F0AD06E4B6F
:10052C005B6803F00C03082B16D16B4B5B6813F460
:10053C00803F11D1684B1B6813F0020F03D0236965
:10054C00012B40F06481644A136823F0F80361695D
:10055C0043EAC10313602EE02369D3B101225F4B40
:10056C001A60FFF7E7FE054605E0FFF7E3FE401BC8
:10057C00022800F24E81584B1B6813F0020FF4D086
:10058C00554A136823F0F803616943EAC103136009
:10059C0011E00022514B1A60FFF7CCFE054605E036
:1005AC00FFF7C8FE401B022800F235814A4B1B683E
:1005BC0013F0020FF4D1236813F0080F29D0A369AC
:1005CC00ABB10122464B1A60FFF7B4FE054605E0BD
:1005DC00FFF7B0FE401B022800F21F813E4B5B6A06
:1005EC0013F0020FF4D00120FFF704FF11E00022FA
:1005FC003B4B1A60FFF79EFE054605E0FFF79AFE9F
:10060C00401B022800F20B81334B5B6A13F0020F84
:10061C00F4D1236813F0040F00F08B802E4BDB69B0
:10062C0013F0805F0BD12C4BDA6942F08052DA6107
:10063C00DB6903F080530193019B012500E0002549
:10064C00284B1B6813F4807F13D1264A136843F49C
:10065C0080731360FFF76EFE064605E0FFF76AFE37
:10066C00801B642800F2DD801E4B1B6813F4807F16
:10067C00F4D0E368012B05D1174A136A43F0010348
:10068C00136222E063B903F1804303F504331A6A61
:10069C0022F001021A621A6A22F004021A6214E0B1
:1006AC00052B09D10C4B1A6A42F004021A621A6A21
:1006BC0042F001021A6208E0074B1A6A22F00102AA
:1006CC001A621A6A22F004021A62E368D3B1FFF7C5
:1006DC0031FE064610E000BF00100240000042420E
:1006EC008004424200700040FFF724FE801B41F260
:1006FC008833984200F29780544B1B6A13F0020F18
:10070C00F2D010E0FFF716FE064607E0FFF712FEE8
:10071C00801B41F28833984200F287804B4B1B6A56
:10072C0013F0020FF2D125B1484AD36923F080535C
:10073C00D361E369002B7AD0444A526802F00C0270
:10074C00082A4CD0022B37D10022414B1A60FFF7FC
:10075C00F1FD054604E0FFF7EDFD401B022868D8CB
:10076C003A4B1B6813F0007FF5D1236AB3F5803F39
:10077C0006D136494B6823F40032A36813434B600F
:10078C003248436823F47411236A626A13430B439F
:10079C00436001222E4B1A60FFF7CCFD044604E0A7
:1007AC00FFF7C8FD001B022845D8284B1B6813F027
:1007BC00007FF5D0002047E00022254B1A60FFF7A0
:1007CC00B9FD044604E0FFF7B5FD001B022834D840
:1007DC001E4B1B6813F0007FF5D1002034E0012B79
:1007EC002DD01A4B5B6803F48031226A914228D1D8
:1007FC0003F47013626A934225D0012024E0012097
:10080C007047012020E003201EE003201CE00120A3
:10081C001AE0032018E0032016E0032014E0032064
:10082C0012E0032010E003200EE003200CE0002077
:10083C000AE0032008E0032006E0032004E0012086
:10084C0002E0012000E0002002B070BD0010024068
:10085C006000424230B486B0164D02AC286869681C
:10086C00AA68EB680FC42B8AADF80430124B5B6896
:10087C0003F00C02082A19D1C3F3834206A90A44D7
:10088C0012F8100C13F4803F0CD00B4B5B68C3F3C5
:10089C0040430B4413F8142C084B03FB00F0B0FB43
:1008AC00F2F004E0064B03FB00F000E0034806B056
:1008BC0030BC7047A40A00080010024000127A00F5
:1008CC0000093D00002800F09D8070B50446544B93
:1008DC001B6803F007038B420BD2514A136823F0B9
:1008EC0007030B431360136803F007038B4240F0BC
:1008FC008B80236813F0020F17D013F0040F04D071
:10090C00484A536843F4E0635360236813F0080FBC
:10091C0004D0444A536843F46053536041484368DD
:10092C0023F0F002A368134343600D46236813F0D1
:10093C00010F2ED06268012A05D13A4B1B6813F4C3
:10094C00003F0DD162E0022A05D1364B1B6813F033
:10095C00007F05D15CE0334B1B6813F0020F59D0BC
:10096C0030494B6823F0030313434B60FFF7E2FC61
:10097C00064606E0FFF7DEFC801B41F28833984206
:10098C004AD8284B5B6803F00C036268B3EB820F08
:10099C00F0D1234B1B6803F00703AB420AD9204A62
:1009AC00136823F007032B431360136803F007034A
:1009BC00AB4233D1236813F0040F06D019494B68AE
:1009CC0023F4E062E36813434B60236813F0080FD1
:1009DC0007D0144A536823F46053216943EAC103D6
:1009EC005360FFF737FF0F4B5B68C3F303130E4ADB
:1009FC00D35CD8400D4B18600D4B1868FFF762FCA8
:100A0C00002070BD01207047012070BD012070BD19
:100A1C00012070BD012070BD032070BD012070BD90
:100A2C000020024000100240E80A000800000020EC
:100A3C00040000200E4B70B51E460E4C0025E41A27
:100A4C00A410A54204D056F8253098470135F8E794
:100A5C0000F016F8084B094C1E46E41AA4100025A9
:100A6C00A54204D056F8253098470135F8E770BDFB
:100A7C00F80A0008F80A0008F80A0008FC0A00083E
:100A8C00F8B500BFF8BC08BC9E467047F8B500BF6F
:080A9C00F8BC08BC9E4670473F
:100AA40002030405060708090A0B0C0D0E0F1010AB
:100AB400010200007372632F7379735F636C6F6359
:100AC4006B2E63005243434F53432048414C20450F
:100AD40052520000524343434C4B2048414C204562
:100AE4005252000000000000000000000102030454
:040AF40006070809E0
:040AF8007901000878
:040AFC00510100089C
:0C0B00000024F4001000000001000000C0
:0400000508000235B8
:00000001FF
