:020000040800F2
:10000000FF27002089020008D1020008D102000861
:10001000D1020008D1020008D1020008000000004F
:10002000000000000000000000000000D1020008F5
:10003000D102000800000000D1020008D10200082F
:10004000D1020008D1020008D1020008D102000844
:10005000D1020008D1020008D1020008D102000834
:10006000D1020008D1020008D1020008D102000824
:10007000D1020008D1020008D1020008D102000814
:10008000D1020008D1020008D1020008D102000804
:10009000D1020008D1020008D1020008D1020008F4
:1000A000D1020008D1020008D1020008D1020008E4
:1000B000D1020008D102000800000000D1020008AF
:1000C000D10200080000000000000000D10200087A
:1000D00000000000D1020008D1020008000000006A
:1000E000D1020008D1020008D1020008000000007F
:1000F0000000000000000000000000000000000000
:0C01000000000000000000005FF808F1A3
:10010C00044B05481B1A062B02D9044B03B11847A4
:10011C00704700BF0F0000200C0000200000000002
:10012C0005490648091A891001EBD171491002D012
:10013C00034B03B1184770470C0000200C00002043
:10014C000000000010B5064C237843B9FFF7D8FF28
:10015C00044B13B10448AFF300800123237010BD8E
:10016C000C00002000000000640A000808B5084BD1
:10017C001BB108490848AFF300800848036813B95D
:10018C00BDE80840CCE7064B002BF9D09847F7E7C1
:10019C000000000010000020640A00080C00002081
:1001AC000000000070B50F4E0F4D761BB61018BF37
:1001BC00002405D0013455F8043B9847A642F9D1E8
:1001CC000A4E0B4D00F048FC761BB61018BF0024ED
:1001DC0006D0013455F8043B9847A642F9D170BDBE
:1001EC0070BD00BFD00A0008D00A0008D40A00086D
:1001FC00D00A000808B500F0B5F800F001F8FEE7E9
:10020C0000B591B0012206924FF4803307934FF45E
:10021C00003108910A9202220D920E934FF4E013D2
:10022C000F9306A800F026F980B90F230193022141
:10023C000291002303934FF480620492059301A86A
:10024C0000F056FB48B911B05DF804FB064B074AA9
:10025C001321022000F00EF8E7E7054B034A1C219E
:10026C00022000F007F8EEE7900A0008A00A000848
:10027C00B00A0008022800D1FEE77047002103E015
:10028C000B4B5B58435004310A480B4B42189A42B3
:10029C00F6D30A4A02E0002342F8043B084B9A4288
:1002AC00F9D300F011F8FFF77DFFFFF7A3FF7047BC
:1002BC00D80A0008000000200C0000200C000020D0
:1002CC002C000020FEE700000F4B1A6842F00102E0
:1002DC001A6059680D4A0A405A601A6822F08472F2
:1002EC0022F480321A601A6822F480221A605A684A
:1002FC0022F4FE025A604FF41F029A604FF0006223
:10030C00034B9A60704700BF001002400000FFF8DA
:10031C0000ED00E07047000010B504460E4B187855
:10032C004FF47A73B3FBF0F30C4A1068B0FBF3F0A4
:10033C0000F074F868B90F2C01D9012010BD00220F
:10034C0021464FF0FF3000F037F8054B1C600020C1
:10035C0010BD012010BD00BF0400002000000020D3
:10036C000800002008B5074A136843F01003136017
:10037C00032000F00FF80F20FFF7CEFFFFF7CAFFA6
:10038C00002008BD00200240014B1868704700BFD8
:10039C0028000020074AD36823F4E0631B041B0CDD
:1003AC00000200F4E060184340F0BF6040F40030FD
:1003BC00D060704700ED00E030B4164BDB68C3F33F
:1003CC000223C3F10704042C28BF04241D1D062D91
:1003DC0017D9033B012505FA04F4013C214099404F
:1003EC0005FA03F3013B1340194300280BDB090109
:1003FC00C9B200F1604000F5614080F8001330BCD8
:10040C0070470023E6E700F00F000901C9B2024B68
:10041C001954F4E700ED00E014ED00E00138B0F100
:10042C00807F0AD2064B5860F021064A82F82310CE
:10043C000020986007221A6070470120704700BFA7
:10044C0010E000E000ED00E082B0084B1B68084AA9
:10045C00A2FB03235B0A00FB03F0019000BF019B8E
:10046C005A1E0192002BF9D102B0704700000020F7
:10047C00D34D6210002800F0F58170B582B00446AF
:10048C00036813F0010F3DD0AB4B5B6803F00C031A
:10049C00042B2ED0A84B5B6803F00C03082B23D045
:1004AC006368B3F5803F51D0002B55D103F18043E5
:1004BC0003F504331A6822F480321A601A6822F4A5
:1004CC0080221A606368002B60D0FFF75DFF054641
:1004DC00994B1B6813F4003F14D1FFF755FF401BD9
:1004EC006428F5D90320C2E1934B5B6813F4803F79
:1004FC00D6D0914B1B6813F4003F03D06368002BDC
:10050C0000F0B281236813F0020F65D08A4B5B6850
:10051C0013F00C0F4ED0884B5B6803F00C03082BC8
:10052C0043D02369002B79D00122844B1A60FFF74A
:10053C002BFF0546804B1B6813F0020F65D1FFF7AC
:10054C0023FF401B0228F5D9032090E17A4A136857
:10055C0043F480331360B5E7B3F5A02F09D0764B85
:10056C001A6822F480321A601A6822F480221A6007
:10057C00A8E703F18043A3F53C331A6842F48022C8
:10058C001A601A6842F480321A609BE7FFF7FCFE8F
:10059C000546694B1B6813F4003FB3D0FFF7F4FE1C
:1005AC00401B6428F5D9032061E1634B5B6813F4AD
:1005BC00803FB6D1604B1B6813F0020F04D0236947
:1005CC00012B01D0012052E15B4A136823F0F803A0
:1005DC00616943EAC1031360236813F0080F32D03A
:1005EC00A369002B6ED00122554B1A60FFF7CCFE8D
:1005FC000546514B5B6A13F0020F21D1FFF7C4FE85
:10060C00401B0228F5D9032031E14B4A136823F033
:10061C00F803616943EAC1031360DDE70022474B2D
:10062C001A60FFF7B1FE0546434B1B6813F0020F2F
:10063C00D2D0FFF7A9FE401B0228F5D9032016E102
:10064C000120FFF701FF236813F0040F00F09880DE
:10065C00394BDB6913F0805F46D1374BDA6942F0D6
:10066C008052DA61DB6903F080530193019B012511
:10067C00344B1B6813F4807F38D0E368012B49D0CE
:10068C00002B4DD103F1804303F504331A6A22F099
:10069C0001021A621A6A22F004021A62E368002B41
:1006AC005CD0FFF771FE0646234B1B6A13F0020F5A
:1006BC0065D1FFF769FE801B41F288339842F3D96C
:1006CC000320D4E000221E4B1A60FFF75DFE0546A6
:1006DC00194B5B6A13F0020FB5D0FFF755FE401BA8
:1006EC000228F5D90320C2E00025C1E7154A13689A
:1006FC0043F480731360FFF747FE0646114B1B68EB
:10070C0013F4807FB9D1FFF73FFE801B6428F5D925
:10071C000320ACE0084A136A43F001031362BDE7FF
:10072C00052B11D0044B1A6A22F001021A621A6AC4
:10073C0022F004021A62B1E70010024000004242AB
:10074C0080044242007000404C4B1A6A42F0040292
:10075C001A621A6A42F001021A629FE7FFF714FE4E
:10076C000646464B1B6A13F0020F08D0FFF70CFE2F
:10077C00801B41F288339842F3D9032077E0E5B926
:10078C00E369002B72D03D4A526802F00C02082A31
:10079C0056D0022B17D00022394B1A60FFF7F4FD0C
:1007AC000446364B1B6813F0007F47D0FFF7ECFD77
:1007BC00001B0228F5D9032059E0304AD36923F0F5
:1007CC008053D361DCE700222D4B1A60FFF7DCFD70
:1007DC0005462A4B1B6813F0007F06D0FFF7D4FDAB
:1007EC00401B0228F5D9032041E0236AB3F5803F72
:1007FC001AD022494B6823F47413226A606A0243AC
:10080C0013434B6001221E4B1A60FFF7BDFD0446DB
:10081C001A4B1B6813F0007F0ED1FFF7B5FD001BC0
:10082C000228F5D9032022E0144A536823F400333C
:10083C00A1680B435360DCE7002018E0002016E0B1
:10084C00012B16D00D4B5B6803F48031226A914268
:10085C0001D001200BE003F47013626A93420AD0BA
:10086C00012004E001207047012000E0002002B0CC
:10087C0070BD0120FBE70020F9E700BF001002402B
:10088C006000424210B586B0154C94E80F000DF193
:10089C00180E0EE90F00238AADF80430114B5B687B
:1008AC0003F00C02082A18D1C3F38342724412F8E5
:1008BC00102C13F4803F03D10B4800FB02F00DE029
:1008CC00084B5B68C3F34043734413F8143C07486C
:1008DC0000FB02F0B0FBF3F000E0044806B010BDE2
:1008EC007C0A00080010024000093D0000127A004A
:1008FC00002800F0A38070B50446524B1B6803F02F
:10090C0007038B420CD24F4A136823F007030B43A7
:10091C001360136803F00703994201D0012070BDE6
:10092C00236813F0020F17D013F0040F04D0464ABB
:10093C00536843F4E0635360236813F0080F04D04A
:10094C00414A536843F4605353603F4A536823F061
:10095C00F003A068034353600D46236813F0010FA6
:10096C0031D06368012B20D0022B25D0364A126877
:10097C0012F0020F64D034494A6822F00302134388
:10098C004B60FFF701FD06462F4B5B6803F00C0331
:10099C006268B3EB820F16D0FFF7F6FC801B41F2B6
:1009AC0088339842F0D9032070BD274A126812F49C
:1009BC00003FE0D1012070BD234A126812F0007F85
:1009CC00D9D1012070BD1F4B1B6803F007039D425A
:1009DC000CD21C4A136823F007032B4313601368D3
:1009EC0003F007039D4201D0012070BD236813F072
:1009FC00040F06D0144A536823F4E063E1680B43F8
:100A0C005360236813F0080F07D00F4A536823F480
:100A1C006053216943EAC1035360FFF733FF0A4B6C
:100A2C005B68C3F30313094AD35CD840084B1860C6
:100A3C00084B1868FFF770FC002070BD0120704750
:100A4C00012070BD0020024000100240C00A0008C6
:100A5C000000002008000020F8B500BFF8BC08BC5E
:100A6C009E467047F8B500BFF8BC08BC9E46704760
:100A7C0002030405060708090A0B0C0D0E0F1010D3
:100A8C00010200005243434F53432048414C204540
:100A9C00525200007372632F7379735F636C6F63D0
:100AAC006B2E6300524343434C4B2048414C204532
:100ABC00525200000000000000000000010203047C
:040ACC000607080908
:040AD00079010008A0
:040AD40051010008C4
:0C0AD8000024F4000100000010000000E9
:040000050800028964
:00000001FF
